:100000000C942A000C9434000C9434000C943400AA
:100010000C9434000C9434000C9434000C94340090
:100020000C9434000C9434000C9434000C94340080
:100030000C9434000C9434000C9434000C94340070
:100040000C9434000C9434000C9434000C94340060
:100050000C94340011241FBECFE5D8E0DEBFCDBF25
:100060000E94B8000C94D1000C94000082E080B98A
:1000700081B9089584EA86BF06B607FEFDCF81B137
:10008000887F8830E1F7089584EA86BF06B607FEC8
:10009000FDCF81B1887F8031E1F7089583B984E88D
:1000A00086BF06B607FEFDCF81B1887F8831E1F7B4
:1000B000089583B984E886BF06B607FEFDCF81B1F7
:1000C000887F8832E1F70895CF93C82F82E40E9499
:1000D0004E008C2F0E9459000E94440080E40E9430
:1000E0004E0081E00E9459000E9444008FE19EE48E
:1000F0000197F1F700C0000080E40E944E0080E00C
:100100000E9459000E944400CF910895CF93C82FB8
:1001100082E40E944E008C2F0E9459000E944400ED
:1001200080E40E944E0085E00E9459000E94440035
:100130008FE19EE40197F1F700C0000080E40E9487
:100140004E0084E00E9459000E944400CF9108951F
:1001500088E30E9464008CE00E94640086E00E94B4
:10016000640081E00E94640080E80E9464000895B9
:100170008FEF8ABB87BB0E9436000E943A000E9424
:10018000A80085E80E94640081E60E9486002FEFA7
:1001900089E698E1215080409040E1F700C00000DE
:0601A000F0CFF894FFCF40
:00000001FF
